{
  "_format": "hh-sol-artifact-1",
  "contractName": "NFT",
  "sourceName": "src/backend/contracts/NFT.sol",
  "abi": [
    {
      "inputs": [
        {
          "internalType": "address",
          "name": "_marketplace",
          "type": "address"
        }
      ],
      "stateMutability": "nonpayable",
      "type": "constructor"
    },
    {
      "inputs": [
        {
          "internalType": "address",
          "name": "sender",
          "type": "address"
        },
        {
          "internalType": "uint256",
          "name": "tokenId",
          "type": "uint256"
        },
        {
          "internalType": "address",
          "name": "owner",
          "type": "address"
        }
      ],
      "name": "ERC721IncorrectOwner",
      "type": "error"
    },
    {
      "inputs": [
        {
          "internalType": "address",
          "name": "operator",
          "type": "address"
        },
        {
          "internalType": "uint256",
          "name": "tokenId",
          "type": "uint256"
        }
      ],
      "name": "ERC721InsufficientApproval",
      "type": "error"
    },
    {
      "inputs": [
        {
          "internalType": "address",
          "name": "approver",
          "type": "address"
        }
      ],
      "name": "ERC721InvalidApprover",
      "type": "error"
    },
    {
      "inputs": [
        {
          "internalType": "address",
          "name": "operator",
          "type": "address"
        }
      ],
      "name": "ERC721InvalidOperator",
      "type": "error"
    },
    {
      "inputs": [
        {
          "internalType": "address",
          "name": "owner",
          "type": "address"
        }
      ],
      "name": "ERC721InvalidOwner",
      "type": "error"
    },
    {
      "inputs": [
        {
          "internalType": "address",
          "name": "receiver",
          "type": "address"
        }
      ],
      "name": "ERC721InvalidReceiver",
      "type": "error"
    },
    {
      "inputs": [
        {
          "internalType": "address",
          "name": "sender",
          "type": "address"
        }
      ],
      "name": "ERC721InvalidSender",
      "type": "error"
    },
    {
      "inputs": [
        {
          "internalType": "uint256",
          "name": "tokenId",
          "type": "uint256"
        }
      ],
      "name": "ERC721NonexistentToken",
      "type": "error"
    },
    {
      "anonymous": false,
      "inputs": [
        {
          "indexed": true,
          "internalType": "address",
          "name": "owner",
          "type": "address"
        },
        {
          "indexed": true,
          "internalType": "address",
          "name": "approved",
          "type": "address"
        },
        {
          "indexed": true,
          "internalType": "uint256",
          "name": "tokenId",
          "type": "uint256"
        }
      ],
      "name": "Approval",
      "type": "event"
    },
    {
      "anonymous": false,
      "inputs": [
        {
          "indexed": true,
          "internalType": "address",
          "name": "owner",
          "type": "address"
        },
        {
          "indexed": true,
          "internalType": "address",
          "name": "operator",
          "type": "address"
        },
        {
          "indexed": false,
          "internalType": "bool",
          "name": "approved",
          "type": "bool"
        }
      ],
      "name": "ApprovalForAll",
      "type": "event"
    },
    {
      "anonymous": false,
      "inputs": [
        {
          "indexed": false,
          "internalType": "uint256",
          "name": "_fromTokenId",
          "type": "uint256"
        },
        {
          "indexed": false,
          "internalType": "uint256",
          "name": "_toTokenId",
          "type": "uint256"
        }
      ],
      "name": "BatchMetadataUpdate",
      "type": "event"
    },
    {
      "anonymous": false,
      "inputs": [
        {
          "indexed": false,
          "internalType": "uint256",
          "name": "_tokenId",
          "type": "uint256"
        }
      ],
      "name": "MetadataUpdate",
      "type": "event"
    },
    {
      "anonymous": false,
      "inputs": [
        {
          "indexed": true,
          "internalType": "address",
          "name": "from",
          "type": "address"
        },
        {
          "indexed": true,
          "internalType": "address",
          "name": "to",
          "type": "address"
        },
        {
          "indexed": true,
          "internalType": "uint256",
          "name": "tokenId",
          "type": "uint256"
        }
      ],
      "name": "Transfer",
      "type": "event"
    },
    {
      "inputs": [
        {
          "internalType": "address",
          "name": "to",
          "type": "address"
        },
        {
          "internalType": "uint256",
          "name": "tokenId",
          "type": "uint256"
        }
      ],
      "name": "approve",
      "outputs": [],
      "stateMutability": "nonpayable",
      "type": "function"
    },
    {
      "inputs": [
        {
          "internalType": "address",
          "name": "owner",
          "type": "address"
        }
      ],
      "name": "balanceOf",
      "outputs": [
        {
          "internalType": "uint256",
          "name": "",
          "type": "uint256"
        }
      ],
      "stateMutability": "view",
      "type": "function"
    },
    {
      "inputs": [
        {
          "internalType": "uint256",
          "name": "tokenId",
          "type": "uint256"
        }
      ],
      "name": "getApproved",
      "outputs": [
        {
          "internalType": "address",
          "name": "",
          "type": "address"
        }
      ],
      "stateMutability": "view",
      "type": "function"
    },
    {
      "inputs": [
        {
          "internalType": "address",
          "name": "owner",
          "type": "address"
        },
        {
          "internalType": "address",
          "name": "operator",
          "type": "address"
        }
      ],
      "name": "isApprovedForAll",
      "outputs": [
        {
          "internalType": "bool",
          "name": "",
          "type": "bool"
        }
      ],
      "stateMutability": "view",
      "type": "function"
    },
    {
      "inputs": [],
      "name": "marketplace",
      "outputs": [
        {
          "internalType": "contract Marketplace",
          "name": "",
          "type": "address"
        }
      ],
      "stateMutability": "view",
      "type": "function"
    },
    {
      "inputs": [
        {
          "internalType": "string",
          "name": "_tokenURI",
          "type": "string"
        },
        {
          "internalType": "uint256",
          "name": "_price",
          "type": "uint256"
        }
      ],
      "name": "mint",
      "outputs": [
        {
          "internalType": "uint256",
          "name": "",
          "type": "uint256"
        }
      ],
      "stateMutability": "nonpayable",
      "type": "function"
    },
    {
      "inputs": [],
      "name": "name",
      "outputs": [
        {
          "internalType": "string",
          "name": "",
          "type": "string"
        }
      ],
      "stateMutability": "view",
      "type": "function"
    },
    {
      "inputs": [
        {
          "internalType": "uint256",
          "name": "tokenId",
          "type": "uint256"
        }
      ],
      "name": "ownerOf",
      "outputs": [
        {
          "internalType": "address",
          "name": "",
          "type": "address"
        }
      ],
      "stateMutability": "view",
      "type": "function"
    },
    {
      "inputs": [
        {
          "internalType": "address",
          "name": "from",
          "type": "address"
        },
        {
          "internalType": "address",
          "name": "to",
          "type": "address"
        },
        {
          "internalType": "uint256",
          "name": "tokenId",
          "type": "uint256"
        }
      ],
      "name": "safeTransferFrom",
      "outputs": [],
      "stateMutability": "nonpayable",
      "type": "function"
    },
    {
      "inputs": [
        {
          "internalType": "address",
          "name": "from",
          "type": "address"
        },
        {
          "internalType": "address",
          "name": "to",
          "type": "address"
        },
        {
          "internalType": "uint256",
          "name": "tokenId",
          "type": "uint256"
        },
        {
          "internalType": "bytes",
          "name": "data",
          "type": "bytes"
        }
      ],
      "name": "safeTransferFrom",
      "outputs": [],
      "stateMutability": "nonpayable",
      "type": "function"
    },
    {
      "inputs": [
        {
          "internalType": "address",
          "name": "operator",
          "type": "address"
        },
        {
          "internalType": "bool",
          "name": "approved",
          "type": "bool"
        }
      ],
      "name": "setApprovalForAll",
      "outputs": [],
      "stateMutability": "nonpayable",
      "type": "function"
    },
    {
      "inputs": [
        {
          "internalType": "bytes4",
          "name": "interfaceId",
          "type": "bytes4"
        }
      ],
      "name": "supportsInterface",
      "outputs": [
        {
          "internalType": "bool",
          "name": "",
          "type": "bool"
        }
      ],
      "stateMutability": "view",
      "type": "function"
    },
    {
      "inputs": [],
      "name": "symbol",
      "outputs": [
        {
          "internalType": "string",
          "name": "",
          "type": "string"
        }
      ],
      "stateMutability": "view",
      "type": "function"
    },
    {
      "inputs": [],
      "name": "tokenCount",
      "outputs": [
        {
          "internalType": "uint256",
          "name": "",
          "type": "uint256"
        }
      ],
      "stateMutability": "view",
      "type": "function"
    },
    {
      "inputs": [
        {
          "internalType": "uint256",
          "name": "tokenId",
          "type": "uint256"
        }
      ],
      "name": "tokenURI",
      "outputs": [
        {
          "internalType": "string",
          "name": "",
          "type": "string"
        }
      ],
      "stateMutability": "view",
      "type": "function"
    },
    {
      "inputs": [
        {
          "internalType": "address",
          "name": "from",
          "type": "address"
        },
        {
          "internalType": "address",
          "name": "to",
          "type": "address"
        },
        {
          "internalType": "uint256",
          "name": "tokenId",
          "type": "uint256"
        }
      ],
      "name": "transferFrom",
      "outputs": [],
      "stateMutability": "nonpayable",
      "type": "function"
    }
  ],
  "bytecode": "0x60806040523480156200001157600080fd5b5060405162002af638038062002af683398181016040528101906200003791906200017b565b6040518060400160405280600881526020017f44417070204e46540000000000000000000000000000000000000000000000008152506040518060400160405280600481526020017f44415050000000000000000000000000000000000000000000000000000000008152508160009081620000b4919062000427565b508060019081620000c6919062000427565b50505080600860006101000a81548173ffffffffffffffffffffffffffffffffffffffff021916908373ffffffffffffffffffffffffffffffffffffffff160217905550506200050e565b600080fd5b600073ffffffffffffffffffffffffffffffffffffffff82169050919050565b6000620001438262000116565b9050919050565b620001558162000136565b81146200016157600080fd5b50565b60008151905062000175816200014a565b92915050565b60006020828403121562000194576200019362000111565b5b6000620001a48482850162000164565b91505092915050565b600081519050919050565b7f4e487b7100000000000000000000000000000000000000000000000000000000600052604160045260246000fd5b7f4e487b7100000000000000000000000000000000000000000000000000000000600052602260045260246000fd5b600060028204905060018216806200022f57607f821691505b602082108103620002455762000244620001e7565b5b50919050565b60008190508160005260206000209050919050565b60006020601f8301049050919050565b600082821b905092915050565b600060088302620002af7fffffffffffffffffffffffffffffffffffffffffffffffffffffffffffffffff8262000270565b620002bb868362000270565b95508019841693508086168417925050509392505050565b6000819050919050565b6000819050919050565b60006200030862000302620002fc84620002d3565b620002dd565b620002d3565b9050919050565b6000819050919050565b6200032483620002e7565b6200033c62000333826200030f565b8484546200027d565b825550505050565b600090565b6200035362000344565b6200036081848462000319565b505050565b5b8181101562000388576200037c60008262000349565b60018101905062000366565b5050565b601f821115620003d757620003a1816200024b565b620003ac8462000260565b81016020851015620003bc578190505b620003d4620003cb8562000260565b83018262000365565b50505b505050565b600082821c905092915050565b6000620003fc60001984600802620003dc565b1980831691505092915050565b6000620004178383620003e9565b9150826002028217905092915050565b6200043282620001ad565b67ffffffffffffffff8111156200044e576200044d620001b8565b5b6200045a825462000216565b620004678282856200038c565b600060209050601f8311600181146200049f57600084156200048a578287015190505b62000496858262000409565b86555062000506565b601f198416620004af866200024b565b60005b82811015620004d957848901518255600182019150602085019450602081019050620004b2565b86831015620004f95784890151620004f5601f891682620003e9565b8355505b6001600288020188555050505b505050505050565b6125d8806200051e6000396000f3fe608060405234801561001057600080fd5b50600436106101005760003560e01c806370a0823111610097578063abc8c7af11610066578063abc8c7af146102bf578063b88d4fde146102dd578063c87b56dd146102f9578063e985e9c51461032957610100565b806370a082311461023757806395d89b41146102675780639f181b5e14610285578063a22cb465146102a357610100565b8063095ea7b3116100d3578063095ea7b3146101b357806323b872dd146101cf57806342842e0e146101eb5780636352211e1461020757610100565b806301ffc9a714610105578063056b01ce1461013557806306fdde0314610165578063081812fc14610183575b600080fd5b61011f600480360381019061011a9190611968565b610359565b60405161012c91906119b0565b60405180910390f35b61014f600480360381019061014a9190611b47565b6103ba565b60405161015c9190611bb2565b60405180910390f35b61016d610490565b60405161017a9190611c4c565b60405180910390f35b61019d60048036038101906101989190611c6e565b610522565b6040516101aa9190611cdc565b60405180910390f35b6101cd60048036038101906101c89190611d23565b61053e565b005b6101e960048036038101906101e49190611d63565b610554565b005b61020560048036038101906102009190611d63565b610656565b005b610221600480360381019061021c9190611c6e565b610676565b60405161022e9190611cdc565b60405180910390f35b610251600480360381019061024c9190611db6565b610688565b60405161025e9190611bb2565b60405180910390f35b61026f610742565b60405161027c9190611c4c565b60405180910390f35b61028d6107d4565b60405161029a9190611bb2565b60405180910390f35b6102bd60048036038101906102b89190611e0f565b6107da565b005b6102c76107f0565b6040516102d49190611eae565b60405180910390f35b6102f760048036038101906102f29190611f6a565b610816565b005b610313600480360381019061030e9190611c6e565b610833565b6040516103209190611c4c565b60405180910390f35b610343600480360381019061033e9190611fed565b610946565b60405161035091906119b0565b60405180910390f35b6000634906490660e01b7bffffffffffffffffffffffffffffffffffffffffffffffffffffffff1916827bffffffffffffffffffffffffffffffffffffffffffffffffffffffff191614806103b357506103b2826109da565b5b9050919050565b6000600760008154809291906103cf9061205c565b91905055506103e033600754610abc565b6103ec60075484610ada565b6000309050600860009054906101000a900473ffffffffffffffffffffffffffffffffffffffff1673ffffffffffffffffffffffffffffffffffffffff1663fa00afc782600754866040518463ffffffff1660e01b8152600401610452939291906120c5565b600060405180830381600087803b15801561046c57600080fd5b505af1158015610480573d6000803e3d6000fd5b5050505060075491505092915050565b60606000805461049f9061212b565b80601f01602080910402602001604051908101604052809291908181526020018280546104cb9061212b565b80156105185780601f106104ed57610100808354040283529160200191610518565b820191906000526020600020905b8154815290600101906020018083116104fb57829003601f168201915b5050505050905090565b600061052d82610b36565b5061053782610bbe565b9050919050565b610550828261054b610bfb565b610c03565b5050565b600073ffffffffffffffffffffffffffffffffffffffff168273ffffffffffffffffffffffffffffffffffffffff16036105c65760006040517f64a0ae920000000000000000000000000000000000000000000000000000000081526004016105bd9190611cdc565b60405180910390fd5b60006105da83836105d5610bfb565b610c15565b90508373ffffffffffffffffffffffffffffffffffffffff168173ffffffffffffffffffffffffffffffffffffffff1614610650578382826040517f64283d7b0000000000000000000000000000000000000000000000000000000081526004016106479392919061215c565b60405180910390fd5b50505050565b61067183838360405180602001604052806000815250610816565b505050565b600061068182610b36565b9050919050565b60008073ffffffffffffffffffffffffffffffffffffffff168273ffffffffffffffffffffffffffffffffffffffff16036106fb5760006040517f89c62b640000000000000000000000000000000000000000000000000000000081526004016106f29190611cdc565b60405180910390fd5b600360008373ffffffffffffffffffffffffffffffffffffffff1673ffffffffffffffffffffffffffffffffffffffff168152602001908152602001600020549050919050565b6060600180546107519061212b565b80601f016020809104026020016040519081016040528092919081815260200182805461077d9061212b565b80156107ca5780601f1061079f576101008083540402835291602001916107ca565b820191906000526020600020905b8154815290600101906020018083116107ad57829003601f168201915b5050505050905090565b60075481565b6107ec6107e5610bfb565b8383610e2f565b5050565b600860009054906101000a900473ffffffffffffffffffffffffffffffffffffffff1681565b610821848484610554565b61082d84848484610f9e565b50505050565b606061083e82610b36565b50600060066000848152602001908152602001600020805461085f9061212b565b80601f016020809104026020016040519081016040528092919081815260200182805461088b9061212b565b80156108d85780601f106108ad576101008083540402835291602001916108d8565b820191906000526020600020905b8154815290600101906020018083116108bb57829003601f168201915b5050505050905060006108e9611155565b905060008151036108fe578192505050610941565b60008251111561093357808260405160200161091b9291906121cf565b60405160208183030381529060405292505050610941565b61093c8461116c565b925050505b919050565b6000600560008473ffffffffffffffffffffffffffffffffffffffff1673ffffffffffffffffffffffffffffffffffffffff16815260200190815260200160002060008373ffffffffffffffffffffffffffffffffffffffff1673ffffffffffffffffffffffffffffffffffffffff16815260200190815260200160002060009054906101000a900460ff16905092915050565b60007f80ac58cd000000000000000000000000000000000000000000000000000000007bffffffffffffffffffffffffffffffffffffffffffffffffffffffff1916827bffffffffffffffffffffffffffffffffffffffffffffffffffffffff19161480610aa557507f5b5e139f000000000000000000000000000000000000000000000000000000007bffffffffffffffffffffffffffffffffffffffffffffffffffffffff1916827bffffffffffffffffffffffffffffffffffffffffffffffffffffffff1916145b80610ab55750610ab4826111d5565b5b9050919050565b610ad682826040518060200160405280600081525061123f565b5050565b80600660008481526020019081526020016000209081610afa9190612395565b507ff8e1a15aba9398e019f0b49df1a4fde98ee17ae345cb5f6b5e2c27f5033e8ce782604051610b2a9190611bb2565b60405180910390a15050565b600080610b428361125b565b9050600073ffffffffffffffffffffffffffffffffffffffff168173ffffffffffffffffffffffffffffffffffffffff1603610bb557826040517f7e273289000000000000000000000000000000000000000000000000000000008152600401610bac9190611bb2565b60405180910390fd5b80915050919050565b60006004600083815260200190815260200160002060009054906101000a900473ffffffffffffffffffffffffffffffffffffffff169050919050565b600033905090565b610c108383836001611298565b505050565b600080610c218461125b565b9050600073ffffffffffffffffffffffffffffffffffffffff168373ffffffffffffffffffffffffffffffffffffffff1614610c6357610c6281848661145d565b5b600073ffffffffffffffffffffffffffffffffffffffff168173ffffffffffffffffffffffffffffffffffffffff1614610cf457610ca5600085600080611298565b6001600360008373ffffffffffffffffffffffffffffffffffffffff1673ffffffffffffffffffffffffffffffffffffffff168152602001908152602001600020600082825403925050819055505b600073ffffffffffffffffffffffffffffffffffffffff168573ffffffffffffffffffffffffffffffffffffffff1614610d77576001600360008773ffffffffffffffffffffffffffffffffffffffff1673ffffffffffffffffffffffffffffffffffffffff168152602001908152602001600020600082825401925050819055505b846002600086815260200190815260200160002060006101000a81548173ffffffffffffffffffffffffffffffffffffffff021916908373ffffffffffffffffffffffffffffffffffffffff160217905550838573ffffffffffffffffffffffffffffffffffffffff168273ffffffffffffffffffffffffffffffffffffffff167fddf252ad1be2c89b69c2b068fc378daa952ba7f163c4a11628f55a4df523b3ef60405160405180910390a4809150509392505050565b600073ffffffffffffffffffffffffffffffffffffffff168273ffffffffffffffffffffffffffffffffffffffff1603610ea057816040517f5b08ba18000000000000000000000000000000000000000000000000000000008152600401610e979190611cdc565b60405180910390fd5b80600560008573ffffffffffffffffffffffffffffffffffffffff1673ffffffffffffffffffffffffffffffffffffffff16815260200190815260200160002060008473ffffffffffffffffffffffffffffffffffffffff1673ffffffffffffffffffffffffffffffffffffffff16815260200190815260200160002060006101000a81548160ff0219169083151502179055508173ffffffffffffffffffffffffffffffffffffffff168373ffffffffffffffffffffffffffffffffffffffff167f17307eab39ab6107e8899845ad3d59bd9653f200f220920489ca2b5937696c3183604051610f9191906119b0565b60405180910390a3505050565b60008373ffffffffffffffffffffffffffffffffffffffff163b111561114f578273ffffffffffffffffffffffffffffffffffffffff1663150b7a02610fe2610bfb565b8685856040518563ffffffff1660e01b815260040161100494939291906124bc565b6020604051808303816000875af192505050801561104057506040513d601f19601f8201168201806040525081019061103d919061251d565b60015b6110c4573d8060008114611070576040519150601f19603f3d011682016040523d82523d6000602084013e611075565b606091505b5060008151036110bc57836040517f64a0ae920000000000000000000000000000000000000000000000000000000081526004016110b39190611cdc565b60405180910390fd5b805181602001fd5b63150b7a0260e01b7bffffffffffffffffffffffffffffffffffffffffffffffffffffffff1916817bffffffffffffffffffffffffffffffffffffffffffffffffffffffff19161461114d57836040517f64a0ae920000000000000000000000000000000000000000000000000000000081526004016111449190611cdc565b60405180910390fd5b505b50505050565b606060405180602001604052806000815250905090565b606061117782610b36565b506000611182611155565b905060008151116111a257604051806020016040528060008152506111cd565b806111ac84611521565b6040516020016111bd9291906121cf565b6040516020818303038152906040525b915050919050565b60007f01ffc9a7000000000000000000000000000000000000000000000000000000007bffffffffffffffffffffffffffffffffffffffffffffffffffffffff1916827bffffffffffffffffffffffffffffffffffffffffffffffffffffffff1916149050919050565b61124983836115ef565b6112566000848484610f9e565b505050565b60006002600083815260200190815260200160002060009054906101000a900473ffffffffffffffffffffffffffffffffffffffff169050919050565b80806112d15750600073ffffffffffffffffffffffffffffffffffffffff168273ffffffffffffffffffffffffffffffffffffffff1614155b156114055760006112e184610b36565b9050600073ffffffffffffffffffffffffffffffffffffffff168373ffffffffffffffffffffffffffffffffffffffff161415801561134c57508273ffffffffffffffffffffffffffffffffffffffff168173ffffffffffffffffffffffffffffffffffffffff1614155b801561135f575061135d8184610946565b155b156113a157826040517fa9fbf51f0000000000000000000000000000000000000000000000000000000081526004016113989190611cdc565b60405180910390fd5b811561140357838573ffffffffffffffffffffffffffffffffffffffff168273ffffffffffffffffffffffffffffffffffffffff167f8c5be1e5ebec7d5bd14f71427d1e84f3dd0314c0f7b2291e5b200ac8c7c3b92560405160405180910390a45b505b836004600085815260200190815260200160002060006101000a81548173ffffffffffffffffffffffffffffffffffffffff021916908373ffffffffffffffffffffffffffffffffffffffff16021790555050505050565b6114688383836116e8565b61151c57600073ffffffffffffffffffffffffffffffffffffffff168373ffffffffffffffffffffffffffffffffffffffff16036114dd57806040517f7e2732890000000000000000000000000000000000000000000000000000000081526004016114d49190611bb2565b60405180910390fd5b81816040517f177e802f00000000000000000000000000000000000000000000000000000000815260040161151392919061254a565b60405180910390fd5b505050565b606060006001611530846117a9565b01905060008167ffffffffffffffff81111561154f5761154e6119e6565b5b6040519080825280601f01601f1916602001820160405280156115815781602001600182028036833780820191505090505b509050600082602001820190505b6001156115e4578080600190039150507f3031323334353637383961626364656600000000000000000000000000000000600a86061a8153600a85816115d8576115d7612573565b5b0494506000850361158f575b819350505050919050565b600073ffffffffffffffffffffffffffffffffffffffff168273ffffffffffffffffffffffffffffffffffffffff16036116615760006040517f64a0ae920000000000000000000000000000000000000000000000000000000081526004016116589190611cdc565b60405180910390fd5b600061166f83836000610c15565b9050600073ffffffffffffffffffffffffffffffffffffffff168173ffffffffffffffffffffffffffffffffffffffff16146116e35760006040517f73c6ac6e0000000000000000000000000000000000000000000000000000000081526004016116da9190611cdc565b60405180910390fd5b505050565b60008073ffffffffffffffffffffffffffffffffffffffff168373ffffffffffffffffffffffffffffffffffffffff16141580156117a057508273ffffffffffffffffffffffffffffffffffffffff168473ffffffffffffffffffffffffffffffffffffffff16148061176157506117608484610946565b5b8061179f57508273ffffffffffffffffffffffffffffffffffffffff1661178783610bbe565b73ffffffffffffffffffffffffffffffffffffffff16145b5b90509392505050565b600080600090507a184f03e93ff9f4daa797ed6e38ed64bf6a1f0100000000000000008310611807577a184f03e93ff9f4daa797ed6e38ed64bf6a1f01000000000000000083816117fd576117fc612573565b5b0492506040810190505b6d04ee2d6d415b85acef81000000008310611844576d04ee2d6d415b85acef8100000000838161183a57611839612573565b5b0492506020810190505b662386f26fc10000831061187357662386f26fc10000838161186957611868612573565b5b0492506010810190505b6305f5e100831061189c576305f5e100838161189257611891612573565b5b0492506008810190505b61271083106118c15761271083816118b7576118b6612573565b5b0492506004810190505b606483106118e457606483816118da576118d9612573565b5b0492506002810190505b600a83106118f3576001810190505b80915050919050565b6000604051905090565b600080fd5b600080fd5b60007fffffffff0000000000000000000000000000000000000000000000000000000082169050919050565b61194581611910565b811461195057600080fd5b50565b6000813590506119628161193c565b92915050565b60006020828403121561197e5761197d611906565b5b600061198c84828501611953565b91505092915050565b60008115159050919050565b6119aa81611995565b82525050565b60006020820190506119c560008301846119a1565b92915050565b600080fd5b600080fd5b6000601f19601f8301169050919050565b7f4e487b7100000000000000000000000000000000000000000000000000000000600052604160045260246000fd5b611a1e826119d5565b810181811067ffffffffffffffff82111715611a3d57611a3c6119e6565b5b80604052505050565b6000611a506118fc565b9050611a5c8282611a15565b919050565b600067ffffffffffffffff821115611a7c57611a7b6119e6565b5b611a85826119d5565b9050602081019050919050565b82818337600083830152505050565b6000611ab4611aaf84611a61565b611a46565b905082815260208101848484011115611ad057611acf6119d0565b5b611adb848285611a92565b509392505050565b600082601f830112611af857611af76119cb565b5b8135611b08848260208601611aa1565b91505092915050565b6000819050919050565b611b2481611b11565b8114611b2f57600080fd5b50565b600081359050611b4181611b1b565b92915050565b60008060408385031215611b5e57611b5d611906565b5b600083013567ffffffffffffffff811115611b7c57611b7b61190b565b5b611b8885828601611ae3565b9250506020611b9985828601611b32565b9150509250929050565b611bac81611b11565b82525050565b6000602082019050611bc76000830184611ba3565b92915050565b600081519050919050565b600082825260208201905092915050565b60005b83811015611c07578082015181840152602081019050611bec565b60008484015250505050565b6000611c1e82611bcd565b611c288185611bd8565b9350611c38818560208601611be9565b611c41816119d5565b840191505092915050565b60006020820190508181036000830152611c668184611c13565b905092915050565b600060208284031215611c8457611c83611906565b5b6000611c9284828501611b32565b91505092915050565b600073ffffffffffffffffffffffffffffffffffffffff82169050919050565b6000611cc682611c9b565b9050919050565b611cd681611cbb565b82525050565b6000602082019050611cf16000830184611ccd565b92915050565b611d0081611cbb565b8114611d0b57600080fd5b50565b600081359050611d1d81611cf7565b92915050565b60008060408385031215611d3a57611d39611906565b5b6000611d4885828601611d0e565b9250506020611d5985828601611b32565b9150509250929050565b600080600060608486031215611d7c57611d7b611906565b5b6000611d8a86828701611d0e565b9350506020611d9b86828701611d0e565b9250506040611dac86828701611b32565b9150509250925092565b600060208284031215611dcc57611dcb611906565b5b6000611dda84828501611d0e565b91505092915050565b611dec81611995565b8114611df757600080fd5b50565b600081359050611e0981611de3565b92915050565b60008060408385031215611e2657611e25611906565b5b6000611e3485828601611d0e565b9250506020611e4585828601611dfa565b9150509250929050565b6000819050919050565b6000611e74611e6f611e6a84611c9b565b611e4f565b611c9b565b9050919050565b6000611e8682611e59565b9050919050565b6000611e9882611e7b565b9050919050565b611ea881611e8d565b82525050565b6000602082019050611ec36000830184611e9f565b92915050565b600067ffffffffffffffff821115611ee457611ee36119e6565b5b611eed826119d5565b9050602081019050919050565b6000611f0d611f0884611ec9565b611a46565b905082815260208101848484011115611f2957611f286119d0565b5b611f34848285611a92565b509392505050565b600082601f830112611f5157611f506119cb565b5b8135611f61848260208601611efa565b91505092915050565b60008060008060808587031215611f8457611f83611906565b5b6000611f9287828801611d0e565b9450506020611fa387828801611d0e565b9350506040611fb487828801611b32565b925050606085013567ffffffffffffffff811115611fd557611fd461190b565b5b611fe187828801611f3c565b91505092959194509250565b6000806040838503121561200457612003611906565b5b600061201285828601611d0e565b925050602061202385828601611d0e565b9150509250929050565b7f4e487b7100000000000000000000000000000000000000000000000000000000600052601160045260246000fd5b600061206782611b11565b91507fffffffffffffffffffffffffffffffffffffffffffffffffffffffffffffffff82036120995761209861202d565b5b600182019050919050565b60006120af82611e7b565b9050919050565b6120bf816120a4565b82525050565b60006060820190506120da60008301866120b6565b6120e76020830185611ba3565b6120f46040830184611ba3565b949350505050565b7f4e487b7100000000000000000000000000000000000000000000000000000000600052602260045260246000fd5b6000600282049050600182168061214357607f821691505b602082108103612156576121556120fc565b5b50919050565b60006060820190506121716000830186611ccd565b61217e6020830185611ba3565b61218b6040830184611ccd565b949350505050565b600081905092915050565b60006121a982611bcd565b6121b38185612193565b93506121c3818560208601611be9565b80840191505092915050565b60006121db828561219e565b91506121e7828461219e565b91508190509392505050565b60008190508160005260206000209050919050565b60006020601f8301049050919050565b600082821b905092915050565b6000600883026122557fffffffffffffffffffffffffffffffffffffffffffffffffffffffffffffffff82612218565b61225f8683612218565b95508019841693508086168417925050509392505050565b600061229261228d61228884611b11565b611e4f565b611b11565b9050919050565b6000819050919050565b6122ac83612277565b6122c06122b882612299565b848454612225565b825550505050565b600090565b6122d56122c8565b6122e08184846122a3565b505050565b5b81811015612304576122f96000826122cd565b6001810190506122e6565b5050565b601f8211156123495761231a816121f3565b61232384612208565b81016020851015612332578190505b61234661233e85612208565b8301826122e5565b50505b505050565b600082821c905092915050565b600061236c6000198460080261234e565b1980831691505092915050565b6000612385838361235b565b9150826002028217905092915050565b61239e82611bcd565b67ffffffffffffffff8111156123b7576123b66119e6565b5b6123c1825461212b565b6123cc828285612308565b600060209050601f8311600181146123ff57600084156123ed578287015190505b6123f78582612379565b86555061245f565b601f19841661240d866121f3565b60005b8281101561243557848901518255600182019150602085019450602081019050612410565b86831015612452578489015161244e601f89168261235b565b8355505b6001600288020188555050505b505050505050565b600081519050919050565b600082825260208201905092915050565b600061248e82612467565b6124988185612472565b93506124a8818560208601611be9565b6124b1816119d5565b840191505092915050565b60006080820190506124d16000830187611ccd565b6124de6020830186611ccd565b6124eb6040830185611ba3565b81810360608301526124fd8184612483565b905095945050505050565b6000815190506125178161193c565b92915050565b60006020828403121561253357612532611906565b5b600061254184828501612508565b91505092915050565b600060408201905061255f6000830185611ccd565b61256c6020830184611ba3565b9392505050565b7f4e487b7100000000000000000000000000000000000000000000000000000000600052601260045260246000fdfea26469706673582212201b2a053c81535eec3b032f4adb2331fa37d0d54335ce90ec6c7b05aab2972baa64736f6c63430008130033",
  "linkReferences": {},
  "deployedLinkReferences": {}
}